{
  "address": "0xdF40dA42Cc9c0483571B26e1600C8BA02c4AE4Fc",
  "abi": [
    {
      "inputs": [
        {
          "internalType": "contract IStake",
          "name": "_stake",
          "type": "address"
        },
        {
          "internalType": "contract IERC20",
          "name": "_token",
          "type": "address"
        }
      ],
      "stateMutability": "nonpayable",
      "type": "constructor"
    },
    {
      "anonymous": false,
      "inputs": [
        {
          "indexed": true,
          "internalType": "address",
          "name": "user",
          "type": "address"
        },
        {
          "indexed": false,
          "internalType": "uint256",
          "name": "amount",
          "type": "uint256"
        }
      ],
      "name": "Withdrawn",
      "type": "event"
    },
    {
      "inputs": [
        {
          "internalType": "address payable",
          "name": "account",
          "type": "address"
        }
      ],
      "name": "destruct",
      "outputs": [],
      "stateMutability": "nonpayable",
      "type": "function"
    },
    {
      "inputs": [
        {
          "internalType": "address",
          "name": "account",
          "type": "address"
        }
      ],
      "name": "getPendingReward",
      "outputs": [
        {
          "internalType": "uint256",
          "name": "",
          "type": "uint256"
        }
      ],
      "stateMutability": "view",
      "type": "function"
    },
    {
      "inputs": [
        {
          "internalType": "address",
          "name": "account",
          "type": "address"
        }
      ],
      "name": "getReward",
      "outputs": [
        {
          "internalType": "uint256",
          "name": "",
          "type": "uint256"
        }
      ],
      "stateMutability": "view",
      "type": "function"
    },
    {
      "inputs": [],
      "name": "stake",
      "outputs": [
        {
          "internalType": "contract IStake",
          "name": "",
          "type": "address"
        }
      ],
      "stateMutability": "view",
      "type": "function"
    },
    {
      "inputs": [],
      "name": "token",
      "outputs": [
        {
          "internalType": "contract IERC20",
          "name": "",
          "type": "address"
        }
      ],
      "stateMutability": "view",
      "type": "function"
    },
    {
      "inputs": [
        {
          "internalType": "address",
          "name": "account",
          "type": "address"
        }
      ],
      "name": "update",
      "outputs": [],
      "stateMutability": "nonpayable",
      "type": "function"
    },
    {
      "inputs": [
        {
          "internalType": "address",
          "name": "",
          "type": "address"
        }
      ],
      "name": "userReward",
      "outputs": [
        {
          "internalType": "uint256",
          "name": "lastRewardUpdatedTime",
          "type": "uint256"
        },
        {
          "internalType": "uint256",
          "name": "amount",
          "type": "uint256"
        }
      ],
      "stateMutability": "view",
      "type": "function"
    },
    {
      "inputs": [
        {
          "internalType": "address",
          "name": "account",
          "type": "address"
        }
      ],
      "name": "withdraw",
      "outputs": [],
      "stateMutability": "nonpayable",
      "type": "function"
    }
  ],
  "transactionHash": "0xcf4fdd765c78e8d76498a1c170eca71dd4da86fabd437b7086b9c6780b45a6ea",
  "args": [
    "0xA37a17576d8eA4f950455D473f8580af2276dDef",
    "0x9db3B82F0fF030EF2698a1a30e3018d34E5210c9"
  ],
  "bytecode": "0x608060405234801561001057600080fd5b506040516107da3803806107da8339818101604052604081101561003357600080fd5b508051602090910151600180546001600160a01b039384166001600160a01b031991821617909155600080549390921692169190911790556107608061007a6000396000f3fe608060405234801561001057600080fd5b50600436106100875760003560e01c80634df9d6ba1161005b5780634df9d6ba1461013d57806351cff8d914610175578063c00007b01461019b578063fc0c546a146101c157610087565b80620a74be1461008c5780631beb2615146100cb5780631c1b8772146100f35780633a4b66f114610119575b600080fd5b6100b2600480360360208110156100a257600080fd5b50356001600160a01b03166101c9565b6040805192835260208301919091528051918290030190f35b6100f1600480360360208110156100e157600080fd5b50356001600160a01b03166101e2565b005b6100f16004803603602081101561010957600080fd5b50356001600160a01b031661024d565b61012161027c565b604080516001600160a01b039092168252519081900360200190f35b6101636004803603602081101561015357600080fd5b50356001600160a01b031661028b565b60408051918252519081900360200190f35b6100f16004803603602081101561018b57600080fd5b50356001600160a01b0316610401565b610163600480360360208110156101b157600080fd5b50356001600160a01b031661053d565b610121610577565b6002602052600090815260409020805460019091015482565b6001546001600160a01b03163314610241576040805162461bcd60e51b815260206004820152601c60248201527f63616e2062652063616c6c6564206279207374616b65206f6e6c792e00000000604482015290519081900360640190fd5b806001600160a01b0316ff5b6102568161053d565b6001600160a01b0390911660009081526002602052604090206001810191909155429055565b6001546001600160a01b031681565b6001600160a01b0381166000908152600260205260408120546102b0575060006103fc565b600154604080516370a0823160e01b81526001600160a01b038581166004830152915160009392909216916370a0823191602480820192602092909190829003018186803b15801561030157600080fd5b505afa158015610315573d6000803e3d6000fd5b505050506040513d602081101561032b57600080fd5b50516001546040805163d2cbf7ad60e01b815290519293506000926001600160a01b039092169163d2cbf7ad91600480820192602092909190829003018186803b15801561037857600080fd5b505afa15801561038c573d6000803e3d6000fd5b505050506040513d60208110156103a257600080fd5b50516001600160a01b038516600090815260026020526040812054919250906103cc904290610586565b905060006103f560646103ef6301e1338081876103e98a896105e8565b906105e8565b90610648565b9450505050505b919050565b6001546001600160a01b03163314610460576040805162461bcd60e51b815260206004820152601c60248201527f63616e2062652063616c6c6564206279207374616b65206f6e6c792e00000000604482015290519081900360640190fd5b6104698161024d565b60006104748261053d565b600080546040805163a9059cbb60e01b81526001600160a01b03878116600483015260248201869052915194955091169263a9059cbb92604480840193602093929083900390910190829087803b1580156104ce57600080fd5b505af11580156104e2573d6000803e3d6000fd5b505050506040513d60208110156104f857600080fd5b50506040805182815290516001600160a01b038416917f7084f5476618d8e60b11ef0d7d3f06914655adb8793e28ff7f018d4c76d505d5919081900360200190a25050565b6001600160a01b038116600090815260026020526040812060010154816105638461028b565b905061056f82826106af565b949350505050565b6000546001600160a01b031681565b6000828211156105dd576040805162461bcd60e51b815260206004820152601e60248201527f536166654d6174683a207375627472616374696f6e206f766572666c6f770000604482015290519081900360640190fd5b508082035b92915050565b6000826105f7575060006105e2565b8282028284828161060457fe5b04146106415760405162461bcd60e51b815260040180806020018281038252602181526020018061070a6021913960400191505060405180910390fd5b9392505050565b600080821161069e576040805162461bcd60e51b815260206004820152601a60248201527f536166654d6174683a206469766973696f6e206279207a65726f000000000000604482015290519081900360640190fd5b8183816106a757fe5b049392505050565b600082820183811015610641576040805162461bcd60e51b815260206004820152601b60248201527f536166654d6174683a206164646974696f6e206f766572666c6f770000000000604482015290519081900360640190fdfe536166654d6174683a206d756c7469706c69636174696f6e206f766572666c6f77a264697066735822122097d16e246137a52c275972b34ff87612d25d2381dd599a9ee8c2dbbeb995aac664736f6c63430007060033"
}